0RCS220190129950035
5538925691         4050538925692950000000000000000                       0000002024100120241231GBR1GBR11011002023092200000070+00000000-FRE                                                                                                            00000070+1100001276EUREUR00000000000000000000000000             000
5538927901         4050538927900950000000000000000                       0000002024100120241231GBR1GBR11011002023092200000055+00000000-FRE                                                                                                            00000055+1100001454EUREUR00000000000000000000000000             000
5BMGCAT328CD       4050538438161950000000000000000                       0000002024100120241231GBR1GBR11011002018113000000061+00000000-FRE                                                                                                            00000061+1100000647EUREUR00000000000000000000000000             000
5SOHOCD059         698458155924 950000000000000000                       0000002024100120241231GBR1GBR11011002013090200000005+00000000-FRE                                                                                                            00000005+1100000403EUREUR00000000000000000000000000             000
5USMMKDCD24        698458722423 950000000000000000                       0000002024100120241231GBR1GBR11011002015060800000010+00000000-FRE                                                                                                            00000010+1100000242EUREUR00000000000000000000000000             000
5SIMPLYCD122       698458292223 950000000000000000                       0000002024100120241231GBR1GBR11011002013090200000002+00000000-FRE                                                                                                            00000002+1100000392EUREUR00000000000000000000000000             000
5SIMPLYD119        4050538297393950000000000000000                       0000002024100120241231GBR1GBR11011002017100600000005+00000000-FRE                                                                                                            00000005+1100000438EUREUR00000000000000000000000000             000
5SIMPLYD120        4050538297416950000000000000000                       0000002024100120241231GBR1GBR11011002017100600000001+00000000-FRE                                                                                                            00000001+1100000438EUREUR00000000000000000000000000             000
5SIMPLYCD275       698458027528 950000000000000000                       0000002024100120241231GBR1GBR11011002013060300000001+00000000-FRE                                                                                                            00000001+1100000269EUREUR00000000000000000000000000             000
5SIMPLYCD276       4050538212259950000000000000000                       0000002024100120241231GBR1GBR11011002016080500000001+00000000-FRE                                                                                                            00000001+1100000269EUREUR00000000000000000000000000             000
5SIMPLYCD068       698458246820 950000000000000000                       0000002024100120241231GBR1GBR11011002008090800000002+00000000-FRE                                                                                                            00000002+1100000403EUREUR00000000000000000000000000             000
5SIMPLYD117        4050538277364950000000000000000                       0000002024100120241231GBR1GBR11011002017063000000004+00000000-FRE                                                                                                            00000004+1100000438EUREUR00000000000000000000000000             000
5SIMPLYCD235       698458023520 950000000000000000                       0000002024100120241231GBR1GBR11011002010060700000002+00000000-FRE                                                                                                            00000002+1100000261EUREUR00000000000000000000000000             000
5SIMPLYD121        4050538297430950000000000000000                       0000002024100120241231GBR1GBR11011002017100600000078+00000000-FRE                                                                                                            00000078+1100000438EUREUR00000000000000000000000000             000
5SIMPLYD118        4050538297355950000000000000000                       0000002024100120241231GBR1GBR11011002017100600000006+00000000-FRE                                                                                                            00000006+1100000438EUREUR00000000000000000000000000             000
5SIMPLYCD277       4050538212273950000000000000000                       0000002024100120241231GBR1GBR11011002016080500000005+00000000-FRE                                                                                                            00000005+1100000269EUREUR00000000000000000000000000             000
5SIMPLYCD211       698458021120 950000000000000000                       0000002024100120241231GBR1GBR11011002009041300000005+00000000-FRE                                                                                                            00000005+1100000269EUREUR00000000000000000000000000             000
5SIMPLYD114        4050538277180950000000000000000                       0000002024100120241231GBR1GBR11011002017063000000009+00000000-FRE                                                                                                            00000009+1100000438EUREUR00000000000000000000000000             000
5SIMPLYCD049       698458244925 950000000000000000                       0000002024100120241231GBR1GBR11011002007092400000002+00000000-FRE                                                                                                            00000002+1100000403EUREUR00000000000000000000000000             000
5SIMPLYCD016       698458241627 950000000000000000                       0000002024100120241231GBR1GBR11011002005080800000002+00000000-FRE                                                                                                            00000002+1100000403EUREUR00000000000000000000000000             000
5SIMPLYCD086       698458248626 950000000000000000                       0000002024100120241231GBR1GBR11011002010080200000001+00000000-FRE                                                                                                            00000001+1100000403EUREUR00000000000000000000000000             000
5ULTIM5CD011       4050538283167950000000000000000                       0000002024100120241231GBR1GBR11011002017051200000004+00000000-FRE                                                                                                            00000004+1100000460EUREUR00000000000000000000000000             000
5USMTVCD008        698458040824 950000000000000000                       0000002024100120241231GBR1GBR11011002014051900000820+00000000-FRE                                                                                                            00000820+1100000036EUREUR00000000000000000000000000             000
5GTSTCD122         4050538267068950000000000000000                       0000002024100120241231GBR1GBR11011002017072800000800+00000000-FRE                                                                                                            00000800+1100000036EUREUR00000000000000000000000000             000
5GTSTCD125         4050538280081950000000000000000                       0000002024100120241231GBR1GBR11011002017092900000100+00000000-FRE                                                                                                            00000100+1100000036EUREUR00000000000000000000000000             000
5GTSTCD123         4050538280005950000000000000000                       0000002024100120241231GBR1GBR11011002017111000000560+00000000-FRE                                                                                                            00000560+1100000036EUREUR00000000000000000000000000             000
5GTSTCD124         4050538280043950000000000000000                       0000002024100120241231GBR1GBR11011002017092900000410+00000000-FRE                                                                                                            00000410+1100000036EUREUR00000000000000000000000000             000
5GTSTCD121         4050538267020950000000000000000                       0000002024100120241231GBR1GBR11011002017072800000160+00000000-FRE                                                                                                            00000160+1100000036EUREUR00000000000000000000000000             000
5USMMTCD048        698458934826 950000000000000000                       0000002024100120241231GBR1GBR11011002014080400000250+00000000-FRE                                                                                                            00000250+1100000036EUREUR00000000000000000000000000             000
5USMMTCD061        698458936127 950000000000000000                       0000002024100120241231GBR1GBR11011002015100900000100+00000000-FRE                                                                                                            00000100+1100000036EUREUR00000000000000000000000000             000
5USMMTCD040        698458934024 950000000000000000                       0000002024100120241231GBR1GBR11011002014011300000550+00000000-FRE                                                                                                            00000550+1100000036EUREUR00000000000000000000000000             000
5USMMTCD031        698458933126 950000000000000000                       0000002024100120241231GBR1GBR11011002013022500000150+00000000-FRE                                                                                                            00000150+1100000036EUREUR00000000000000000000000000             000
5USMMTCD034        698458933423 950000000000000000                       0000002024100120241231GBR1GBR11011002013050600000800+00000000-FRE                                                                                                            00000800+1100000036EUREUR00000000000000000000000000             000
5USMMTCD069        4050538206524950000000000000000                       0000002024100120241231GBR1GBR11011002016093000000100+00000000-FRE                                                                                                            00000100+1100000036EUREUR00000000000000000000000000             000
5USMMTCD058        698458935823 950000000000000000                       0000002024100120241231GBR1GBR11011002015080700000100+00000000-FRE                                                                                                            00000100+1100000036EUREUR00000000000000000000000000             000
5USMMTCD041        698458934123 950000000000000000                       0000002024100120241231GBR1GBR11011002014011300000300+00000000-FRE                                                                                                            00000300+1100000036EUREUR00000000000000000000000000             000
5USMMTCD022        698458932228 950000000000000000                       0000002024100120241231GBR1GBR11011002012030500000150+00000000-FRE                                                                                                            00000150+1100000036EUREUR00000000000000000000000000             000
5USMMTCD030        698458933027 950000000000000000                       0000002024100120241231GBR1GBR11011002013012100000150+00000000-FRE                                                                                                            00000150+1100000036EUREUR00000000000000000000000000             000
5USMMTCD064        4050538193459950000000000000000                       0000002024100120241231GBR1GBR11011002016050600000150+00000000-FRE                                                                                                            00000150+1100000036EUREUR00000000000000000000000000             000
5USMMTCD063        4050538192582950000000000000000                       0000002024100120241231GBR1GBR11011002016031100000370+00000000-FRE                                                                                                            00000370+1100000036EUREUR00000000000000000000000000             000
5USMMTCD010        698458931023 950000000000000000                       0000002024100120241231GBR1GBR11011002011052300000650+00000000-FRE                                                                                                            00000650+1100000036EUREUR00000000000000000000000000             000
5USMMTCD066        4050538194852950000000000000000                       0000002024100120241231GBR1GBR11011002016060300000550+00000000-FRE                                                                                                            00000550+1100000036EUREUR00000000000000000000000000             000
5USMMTCD035        698458933522 950000000000000000                       0000002024100120241231GBR1GBR11011002013060300000650+00000000-FRE                                                                                                            00000650+1100000036EUREUR00000000000000000000000000             000
5USMMTCD054        698458935427 950000000000000000                       0000002024100120241231GBR1GBR11011002015040600000250+00000000-FRE                                                                                                            00000250+1100000036EUREUR00000000000000000000000000             000
5USMMTCD025        698458932525 950000000000000000                       0000002024100120241231GBR1GBR11011002012080600000250+00000000-FRE                                                                                                            00000250+1100000036EUREUR00000000000000000000000000             000
5USMMTCD037        698458933720 950000000000000000                       0000002024100120241231GBR1GBR11011002013100700000100+00000000-FRE                                                                                                            00000100+1100000036EUREUR00000000000000000000000000             000
5USMTVCD017        4050538301472950000000000000000                       0000002024100120241231GBR1GBR11011002017072100000100+00000000-FRE                                                                                                            00000100+1100000036EUREUR00000000000000000000000000             000
5USMTVCD016        4050538287936950000000000000000                       0000002024100120241231GBR1GBR11011002017052600000800+00000000-FRE                                                                                                            00000800+1100000036EUREUR00000000000000000000000000             000
5ULTIM5CD006       4050538267600950000000000000000                       0000002024100120241231GBR1GBR11011002017051200002450+00000000-FRE                                                                                                            00002450+1100000036EUREUR00000000000000000000000000             000
5ULTIM5CD006       4050538267600950000000000000000                       0000002024100120241231GBR1GBR11011002017051200000045+00000000-FRE                                                                                                            00000045+1100000133EUREUR00000000000000000000000000             000
5ULTIM5CD015       4050538283204950000000000000000                       0000002024100120241231GBR1GBR11011002017063000001600+00000000-FRE                                                                                                            00001600+1100000036EUREUR00000000000000000000000000             000
5ULTIM5CD008       4050538267723950000000000000000                       0000002024100120241231GBR1GBR11011002017051200002232+00000000-FRE                                                                                                            00002232+1100000010EUREUR00000000000000000000000000             000
5ULTIM5CD025       4050538283303950000000000000000                       0000002024100120241231GBR1GBR11011002017101300002002+00000000-FRE                                                                                                            00002002+1100000036EUREUR00000000000000000000000000             000
5ULTIM5CD025       4050538283303950000000000000000                       0000002024100120241231GBR1GBR11011002017101300000005+00000000-FRE                                                                                                            00000005+1100000133EUREUR00000000000000000000000000             000
5ULTIM5CD019       4050538283242950000000000000000                       0000002024100120241231GBR1GBR11011002017082500002080+00000000-FRE                                                                                                            00002080+1100000036EUREUR00000000000000000000000000             000
5ULTIM5CD019       4050538283242950000000000000000                       0000002024100120241231GBR1GBR11011002017082500000005+00000000-FRE                                                                                                            00000005+1100000133EUREUR00000000000000000000000000             000
5ULTIM5CD002       4050538267365950000000000000000                       0000002024100120241231GBR1GBR11011002017041400002260+00000000-FRE                                                                                                            00002260+1100000036EUREUR00000000000000000000000000             000
5ULTIM5CD002       4050538267365950000000000000000                       0000002024100120241231GBR1GBR11011002017041400000005+00000000-FRE                                                                                                            00000005+1100000133EUREUR00000000000000000000000000             000
5ULTIM5CD007       4050538267662950000000000000000                       0000002024100120241231GBR1GBR11011002017051200010962+00000000-FRE                                                                                                            00010962+1100000010EUREUR00000000000000000000000000             000
5ULTIM5CD021       4050538283266950000000000000000                       0000002024100120241231GBR1GBR11011002017101300005909+00000000-FRE                                                                                                            00005909+1100000010EUREUR00000000000000000000000000             000
5ULTIM5CD027       4050538283327950000000000000000                       0000002024100120241231GBR1GBR11011002017101300001300+00000000-FRE                                                                                                            00001300+1100000036EUREUR00000000000000000000000000             000
5ULTIM5CD022       4050538283273950000000000000000                       0000002024100120241231GBR1GBR11011002017101300000010+00000000-FRE                                                                                                            00000010+1100000133EUREUR00000000000000000000000000             000
5ULTIM5CD011       4050538283167950000000000000000                       0000002024100120241231GBR1GBR11011002017051200000080+00000000-FRE                                                                                                            00000080+1100000036EUREUR00000000000000000000000000             000
5ULTIM5CD011       4050538283167950000000000000000                       0000002024100120241231GBR1GBR11011002017051200000005+00000000-FRE                                                                                                            00000005+1100000133EUREUR00000000000000000000000000             000
5ULTIM5CD013       4050538283181950000000000000000                       0000002024100120241231GBR1GBR11011002017063000002336+00000000-FRE                                                                                                            00002336+1100000010EUREUR00000000000000000000000000             000
5ULTIM5CD020       4050538283259950000000000000000                       0000002024100120241231GBR1GBR11011002017082500005054+00000000-FRE                                                                                                            00005054+1100000010EUREUR00000000000000000000000000             000
5ULTIM5CD009       4050538267785950000000000000000                       0000002024100120241231GBR1GBR11011002017051200001191+00000000-FRE                                                                                                            00001191+1100000010EUREUR00000000000000000000000000             000
5ULTIM5CD026       4050538283310950000000000000000                       0000002024100120241231GBR1GBR11011002017101300009335+00000000-FRE                                                                                                            00009335+1100000010EUREUR00000000000000000000000000             000
5ULTIM5CD026       4050538283310950000000000000000                       0000002024100120241231GBR1GBR11011002017101300000040+00000000-FRE                                                                                                            00000040+1100000133EUREUR00000000000000000000000000             000
5ULTIM5CD032       4050538346343950000000000000000                       0000002024100120241231GBR1GBR11011002018033000000800+00000000-FRE                                                                                                            00000800+1100000036EUREUR00000000000000000000000000             000
5ULTIM5CD004       4050538267488950000000000000000                       0000002024100120241231GBR1GBR11011002017041400000450+00000000-FRE                                                                                                            00000450+1100000036EUREUR00000000000000000000000000             000
5ULTIM5CD004       4050538267488950000000000000000                       0000002024100120241231GBR1GBR11011002017041400000005+00000000-FRE                                                                                                            00000005+1100000133EUREUR00000000000000000000000000             000
5ULTIM5CD003       4050538267426950000000000000000                       0000002024100120241231GBR1GBR11011002017041400001200+00000000-FRE                                                                                                            00001200+1100000036EUREUR00000000000000000000000000             000
5ULTIM5CD003       4050538267426950000000000000000                       0000002024100120241231GBR1GBR11011002017041400000305+00000000-FRE                                                                                                            00000305+1100000133EUREUR00000000000000000000000000             000
5ULTIM5CD031       4050538346329950000000000000000                       0000002024100120241231GBR1GBR11011002018033000001439+00000000-FRE                                                                                                            00001439+1100000036EUREUR00000000000000000000000000             000
5ULTIM5CD031       4050538346329950000000000000000                       0000002024100120241231GBR1GBR11011002018033000000310+00000000-FRE                                                                                                            00000310+1100000133EUREUR00000000000000000000000000             000
5ULTIM5CD035       4050538371208950000000000000000                       0000002024100120241231GBR1GBR11011002018081700000750+00000000-FRE                                                                                                            00000750+1100000036EUREUR00000000000000000000000000             000
5ULTIM5CD018       4050538283235950000000000000000                       0000002024100120241231GBR1GBR11011002017082500008854+00000000-FRE                                                                                                            00008854+1100000010EUREUR00000000000000000000000000             000
5TAG80002CD        4050538806397950000000000000000                       0000002024100120241231GBR1GBR11011002022061700000075+00000000-FRE                                                                                                            00000075+1100000636EUREUR00000000000000000000000000             000
5538996101         4050538996104950000000000000000                       0000002024100120241231GBR1GBR11011002024030100000070+00000000-FRE                                                                                                            00000070+1100001624EUREUR00000000000000000000000000             000
5BMGCAT886DBOX     4099964027068950000000000000000                       0000002024100120241231GBR1GBR11011002024090600000005+00000000-FRE                                                                                                            00000005+1100003473EUREUR00000000000000000000000000             000
5BMGCAT585CLP      4050538819151950000000000000000                       0000002024100120241231GBR1GBR11011002022102800000130+00000000-FRE                                                                                                            00000130+1100002006EUREUR00000000000000000000000000             000
5538982670         4050538982671950000000000000000                       0000002024100120241231GBR1GBR11011002024030800000216+00000000-FRE                                                                                                            00000216+1100001787EUREUR00000000000000000000000000             000
5BMGCAT806LP       4050538948455950000000000000000                       0000002024100120241231GBR1GBR11011002023102000000010+00000000-FRE                                                                                                            00000010+1100001538EUREUR00000000000000000000000000             000
5BMGCAT157TCDX     4099964005561950000000000000000                       0000002024100120241231GBR1GBR11011002024012600000015+00000000-FRE                                                                                                            00000015+1100000836EUREUR00000000000000000000000000             000
5964058791         4099964058796950000000000000000                       0000002024100120241231GBR1GBR11011002024071900000100+00000000-FRE                                                                                                            00000100+1100000724EUREUR00000000000000000000000000             000
5538940291         4050538940299950000000000000000                       0000002024100120241231GBR1GBR11011002023101300000100+00000000-FRE                                                                                                            00000100+1100001725EUREUR00000000000000000000000000             000
5538940342         4050538940343950000000000000000                       0000002024100120241231GBR1GBR11011002023101300000100+00000000-FRE                                                                                                            00000100+1100000827EUREUR00000000000000000000000000             000
5964046072         4099964046076950000000000000000                       0000002024100120241231GBR1GBR11011002024071900000250+00000000-FRE                                                                                                            00000250+1100001725EUREUR00000000000000000000000000             000
5Rise 538-11       4099964012668950000000000000000                       0000002024100120241231GBR1GBR11011002024032900000750+00000000-FRE                                                                                                            00000750+1100002507EUREUR00000000000000000000000000             000
5BMGCAT950SV       4099964062441950000000000000000                       0000002024100120241231GBR1GBR11011002024080900000400+00000000-FRE                                                                                                            00000400+1100000837EUREUR00000000000000000000000000             000
5964055082         4099964055085950000000000000000                       0000002024100120241231GBR1GBR11011002024081600000370+00000000-FRE                                                                                                            00000370+1100000885EUREUR00000000000000000000000000             000
5964055131         4099964055139950000000000000000                       0000002024100120241231GBR1GBR11011002024081600000150+00000000-FRE                                                                                                            00000150+1100001538EUREUR00000000000000000000000000             000
5964008572         4099964008579950000000000000000                       0000002024100120241231GBR1GBR11011002024071200000080+00000000-FRE                                                                                                            00000080+1100000760EUREUR00000000000000000000000000             000
5538314540         4050538314540950000000000000000                       0000002024100120241231GBR1GBR11011002022101400000005+00000000-FRE                                                                                                            00000005+1100013220EUREUR00000000000000000000000000             000
5538314720         4050538314724950000000000000000                       0000002024100120241231GBR1GBR11011002022101400000065+00000000-FRE                                                                                                            00000065+1100000560EUREUR00000000000000000000000000             000
5538314720         4050538314724950000000000000000                       0000002024100120241231GBR1GBR11011002022101400000010+00000000-FRE                                                                                                            00000010+1100000689EUREUR00000000000000000000000000             000
5538317770         4050538317770950000000000000000                       0000002024100120241231GBR1GBR11011002022101400000020+00000000-FRE                                                                                                            00000020+1100002674EUREUR00000000000000000000000000             000
5BMGCAT831BOX      4050538938715950000000000000000                       0000002024100120241231GBR1GBR11011002024102500000200+00000000-FRE                                                                                                            00000200+1100006009EUREUR00000000000000000000000000             000
5BRASSIC29LP       5025425552922950000000000000000                       0000002024100120241231GBR1GBR11011002004100100000005+00000000-FRE                                                                                                            00000005+1100001157EUREUR00000000000000000000000000             000
5BRASSIC127BOX     4050538817171950000000000000000                       0000002024100120241231GBR1GBR11011002022090200000005+00000000-FRE                                                                                                            00000005+1100002802EUREUR00000000000000000000000000             000
5BRASSIC11HSLP     4050538919004950000000000000000                       0000002024100120241231GBR1GBR11011002023101400000015+00000000-FRE                                                                                                            00000015+1100001833EUREUR00000000000000000000000000             000
5BMGCAT585CLP      4050538819151950000000000000000                       0000002024100120241231GBR1GBR11011002022102800000180+00000000-FRE                                                                                                            00000180+1100002026EUREUR00000000000000000000000000             000
5964046072         4099964046076950000000000000000                       0000002024100120241231GBR1GBR11011002024071900000122+00000000-FRE                                                                                                            00000122+1100000784EUREUR00000000000000000000000000             000
5964046091         4099964046090950000000000000000                       0000002024100120241231GBR1GBR11011002024071900000200+00000000-FRE                                                                                                            00000200+1100001635EUREUR00000000000000000000000000             000
5964061331         4099964061338950000000000000000                       0000002024100120241231GBR1GBR11011002024090600000070+00000000-FRE                                                                                                            00000070+1100000451EUREUR00000000000000000000000000             000
5538314720         4050538314724950000000000000000                       0000002024100120241231GBR1GBR11011002022101400000004+00000000-FRE                                                                                                            00000004+1100000165EUREUR00000000000000000000000000             000
5538317770         4050538317770950000000000000000                       0000002024100120241231GBR1GBR11011002022101400000001+00000000-FRE                                                                                                            00000001+1100001322EUREUR00000000000000000000000000             000
5538317790         4050538317794950000000000000000                       0000002024100120241231GBR1GBR11011002022101400000003+00000000-FRE                                                                                                            00000003+1100000582EUREUR00000000000000000000000000             000
5BMGCAT527DBOX     4050538689990950000000000000000                       0000002024100120241231GBR1GBR11011002022061000000001+00000000-FRE                                                                                                            00000001+1100008923EUREUR00000000000000000000000000             000
5BMGCAT887DLP      4099964027631950000000000000000                       0000002024100120241231GBR1GBR11011002024092000000002+00000000-FRE                                                                                                            00000002+1100002893EUREUR00000000000000000000000000             000
5964059252         4099964059250950000000000000000                       0000002024100120241231GBR1GBR11011002024110800000008+00000000-FRE                                                                                                            00000008+1100001107EUREUR00000000000000000000000000             000
5964083032         4099964083033950000000000000000                       0000002024100120241231GBR1GBR11011002024102500000003+00000000-FRE                                                                                                            00000003+1100001012EUREUR00000000000000000000000000             000
5ECCEHOMOCDX       4099964039443950000000000000000                       0000002024100120241231GBR1GBR11011002024102500000001+00000000-FRE                                                                                                            00000001+1100001044EUREUR00000000000000000000000000             000
5ECCEHOMOCLP       4099964039450950000000000000000                       0000002024100120241231GBR1GBR11011002024102500000004+00000000-FRE                                                                                                            00000004+1100003151EUREUR00000000000000000000000000             000
5DH0034Z           4050538981858950000000000000000                       0000002024100120241231GBR1GBR11011002024042000000001+00000000-FRE                                                                                                            00000001+1100002170EUREUR00000000000000000000000000             000
5TAG80029CD        4099964062533950000000000000000                       0000002024100120241231GBR1GBR11011002024092700000001+00000000-FRE                                                                                                            00000001+1100001125EUREUR00000000000000000000000000             000
5BMGCAT897LPD      4099964054316950000000000000000                       0000002024100120241231GBR1GBR11011002024110100000034+00000000-FRE                                                                                                            00000034+1100003013EUREUR00000000000000000000000000             000
5BMGCAT784DLP      4050538846775950000000000000000                       0000002024100120241231GBR1GBR11011002022110400000001+00000000-FRE                                                                                                            00000001+1100002974EUREUR00000000000000000000000000             000
5964008591         4099964008593950000000000000000                       0000002024100120241231GBR1GBR11011002024071200000003+00000000-FRE                                                                                                            00000003+1100001852EUREUR00000000000000000000000000             000
5BMGCAT861LP       4050538980790950000000000000000                       0000002024100120241231GBR1GBR11011002024101800000002+00000000-FRE                                                                                                            00000002+1100002182EUREUR00000000000000000000000000             000
5964058681         4099964058680950000000000000000                       0000002024100120241231GBR1GBR11011002024110100000007+00000000-FRE                                                                                                            00000007+1100002700EUREUR00000000000000000000000000             000
5964060052         4099964060058950000000000000000                       0000002024100120241231GBR1GBR11011002024110100000002+00000000-FRE                                                                                                            00000002+1100001125EUREUR00000000000000000000000000             000
5964043682         4099964043686950000000000000000                       0000002024100120241231GBR1GBR11011002024110800000005+00000000-FRE                                                                                                            00000005+1100001778EUREUR00000000000000000000000000             000
5BMGCAT899LP       4099964007558950000000000000000                       0000002024100120241231GBR1GBR11011002024042000000002+00000000-FRE                                                                                                            00000002+1100002411EUREUR00000000000000000000000000             000
5BMGRM054LP        5414939920790950000000000000000                       0000002024100120241231GBR1GBR11011002015042000000001+00000000-FRE                                                                                                            00000001+1100001951EUREUR00000000000000000000000000             000
5BMGCAT831DLP      4050538938661950000000000000000                       0000002024100120241231GBR1GBR11011002024102500000010+00000000-FRE                                                                                                            00000010+1100002431EUREUR00000000000000000000000000             000
5BMGCAT831BOX      4050538938715950000000000000000                       0000002024100120241231GBR1GBR11011002024102500000008+00000000-FRE                                                                                                            00000008+1100009998EUREUR00000000000000000000000000             000
5BRASSIC127BOX     4050538817171950000000000000000                       0000002024100120241231GBR1GBR11011002022090200000001+00000000-FRE                                                                                                            00000001+1100002802EUREUR00000000000000000000000000             000
5BMGCAT502LP       4050538659313950000000000000000                       0000002024100120241231GBR1GBR11011002022012800000002+00000000-FRE                                                                                                            00000002+1100002411EUREUR00000000000000000000000000             000
5BMGCAT920LP       4050538980783950000000000000000                       0000002024100120241231GBR1GBR11011002024101800000001+00000000-FRE                                                                                                            00000001+1100001849EUREUR00000000000000000000000000             000
5Rise 544-1        4099964063172950000000000000000                       0000002024100120241231GBR1GBR11011002024101100000002+00000000-FRE                                                                                                            00000002+1100001849EUREUR00000000000000000000000000             000
5964059281         4099964059281950000000000000000                       0000002024100120241231GBR1GBR11011002024101800000011+00000000-FRE                                                                                                            00000011+1100002663EUREUR00000000000000000000000000             000
5964059292         4099964059298950000000000000000                       0000002024100120241231GBR1GBR11011002024101800000001+00000000-FRE                                                                                                            00000001+1100001008EUREUR00000000000000000000000000             000
5BMGCAT898LP       4099964054378950000000000000000                       0000002024100120241231GBR1GBR11011002024100400000033+00000000-FRE                                                                                                            00000033+1100002507EUREUR00000000000000000000000000             000
5964051322         4099964051322950000000000000000                       0000002024100120241231GBR1GBR11011002024102500000001+00000000-FRE                                                                                                            00000001+1100001154EUREUR00000000000000000000000000             000
5964051351         4099964051353950000000000000000                       0000002024100120241231GBR1GBR11011002024102500000004+00000000-FRE                                                                                                            00000004+1100001849EUREUR00000000000000000000000000             000
5BMGCAT2LP83       4050538936773950000000000000000                       0000002024100120241231GBR1GBR11011002023100600000001+00000000-FRE                                                                                                            00000001+1100002814EUREUR00000000000000000000000000             000
5DH0033Z           4050538981841950000000000000000                       0000002024100120241231GBR1GBR11011002024042000000001+00000000-FRE                                                                                                            00000001+1100002170EUREUR00000000000000000000000000             000
52752460           602527524603 950000000000000000                       0000002024100120241231GBR1GBR11011002010110100000001+00000001-FRE                                                                                                            00000000+1100000000EUREUR00000000000000000000000000             000
5UMC9034           602557090345 950000000000000000                       0000002024100120241231GBR1GBR11011002014010100000001+00000001-FRE                                                                                                            00000000+1100000000EUREUR00000000000000000000000000             000
55709035           602557090352 950000000000000000                       0000002024100120241231GBR1GBR11011002014010100000001+00000001-FRE                                                                                                            00000000+1100000000EUREUR00000000000000000000000000             000
5UMC9042           602557090420 950000000000000000                       0000002024100120241231GBR1GBR11011002014010100000001+00000001-FRE                                                                                                            00000000+1100000000EUREUR00000000000000000000000000             000
55713639           602557136395 950000000000000000                       0000002024100120241231GBR1GBR11011002004010100000001+00000001-FRE                                                                                                            00000000+1100000000EUREUR00000000000000000000000000             000
55713655           602557136555 950000000000000000                       0000002024100120241231GBR1GBR11011002014010100000001+00000001-FRE                                                                                                            00000000+1100000000EUREUR00000000000000000000000000             000
5BMGCAT2CD83       4050538232851950000000000000000                       0000002024100120241231GBR1GBR11011002016102800000001+00000001-FRE                                                                                                            00000000+1100000000EUREUR00000000000000000000000000             000
5SALVOLPV016       4050538252668950000000000000000                       0000002024100120241231GBR1GBR11011002017042200000001+00000001-FRE                                                                                                            00000000+1100000000EUREUR00000000000000000000000000             000
5SUICIDELP01       4050538253610950000000000000000                       0000002024100120241231GBR1GBR11011002019071200000010+00000010-FRE                                                                                                            00000000+1100000000EUREUR00000000000000000000000000             000
5USMTVDCD018       4050538325126950000000000000000                       0000002024100120241231GBR1GBR11011002017111700000001+00000001-FRE                                                                                                            00000000+1100000000EUREUR00000000000000000000000000             000
5BMGCAT139TCD      4050538328141950000000000000000                       0000002024100120241231GBR1GBR11011002018022300000001+00000001-FRE                                                                                                            00000000+1100000000EUREUR00000000000000000000000000             000
5BMGCAT140TCD      4050538328455950000000000000000                       0000002024100120241231GBR1GBR11011002018022300000001+00000001-FRE                                                                                                            00000000+1100000000EUREUR00000000000000000000000000             000
5NOISE2LP053       4050538354508950000000000000000                       0000002024100120241231GBR1GBR11011002018033000000001+00000001-FRE                                                                                                            00000000+1100000000EUREUR00000000000000000000000000             000
5NOISE2LP054       4050538355468950000000000000000                       0000002024100120241231GBR1GBR11011002018033000000001+00000001-FRE                                                                                                            00000000+1100000000EUREUR00000000000000000000000000             000
5NOISELP055        4050538355529950000000000000000                       0000002024100120241231GBR1GBR11011002018033000000001+00000001-FRE                                                                                                            00000000+1100000000EUREUR00000000000000000000000000             000
5TJDCD566          4050538359282950000000000000000                       0000002024100120241231GBR1GBR11011002018022300000003+00000003-FRE                                                                                                            00000000+1100000000EUREUR00000000000000000000000000             000
5TJDCD567          4050538359336950000000000000000                       0000002024100120241231GBR1GBR11011002018022300000001+00000001-FRE                                                                                                            00000000+1100000000EUREUR00000000000000000000000000             000
5TJDCD569          4050538375985950000000000000000                       0000002024100120241231GBR1GBR11011002018042700000003+00000003-FRE                                                                                                            00000000+1100000000EUREUR00000000000000000000000000             000
5TJDCD568          4050538376708950000000000000000                       0000002024100120241231GBR1GBR11011002018042700000001+00000001-FRE                                                                                                            00000000+1100000000EUREUR00000000000000000000000000             000
5NOISECD067        4050538380880950000000000000000                       0000002024100120241231GBR1GBR11011002022052700000001+00000001-FRE                                                                                                            00000000+1100000000EUREUR00000000000000000000000000             000
5TJTCD572          4050538383706950000000000000000                       0000002024100120241231GBR1GBR11011002018052500000002+00000002-FRE                                                                                                            00000000+1100000000EUREUR00000000000000000000000000             000
5BMGCAT328CD       4050538438161950000000000000000                       0000002024100120241231GBR1GBR11011002018113000000002+00000002-FRE                                                                                                            00000000+1100000000EUREUR00000000000000000000000000             000
5BMGCAT333CD       4050538438529950000000000000000                       0000002024100120241231GBR1GBR11011002018113000000002+00000002-FRE                                                                                                            00000000+1100000000EUREUR00000000000000000000000000             000
5BMGCAT332CD       4050538438550950000000000000000                       0000002024100120241231GBR1GBR11011002018113000000002+00000002-FRE                                                                                                            00000000+1100000000EUREUR00000000000000000000000000             000
5BMGCAT330CD       4050538438574950000000000000000                       0000002024100120241231GBR1GBR11011002018113000000002+00000002-FRE                                                                                                            00000000+1100000000EUREUR00000000000000000000000000             000
5BMGCAT331CD       4050538438598950000000000000000                       0000002024100120241231GBR1GBR11011002018113000000002+00000002-FRE                                                                                                            00000000+1100000000EUREUR00000000000000000000000000             000
5538448231         4050538448238950000000000000000                       0000002024100120241231GBR1GBR11011002018113000000001+00000001-FRE                                                                                                            00000000+1100000000EUREUR00000000000000000000000000             000
5BMGCAT348DLP      4050538455724950000000000000000                       0000002024100120241231GBR1GBR11011002019032900000010+00000010-FRE                                                                                                            00000000+1100000000EUREUR00000000000000000000000000             000
5BMGCAT380BOX      4050538462548950000000000000000                       0000002024100120241231GBR1GBR11011002019102500000004+00000004-FRE                                                                                                            00000000+1100000000EUREUR00000000000000000000000000             000
5538558842         4050538558845950000000000000000                       0000002024100120241231GBR1GBR11011002019121300000001+00000001-FRE                                                                                                            00000000+1100000000EUREUR00000000000000000000000000             000
5BMGCAT432TLP      4050538587227950000000000000000                       0000002024100120241231GBR1GBR11011002020103000000001+00000001-FRE                                                                                                            00000000+1100000000EUREUR00000000000000000000000000             000
5BMGCAT454BOX      4050538605297950000000000000000                       0000002024100120241231GBR1GBR11011002021043000000020+00000020-FRE                                                                                                            00000000+1100000000EUREUR00000000000000000000000000             000
5538612502         4050538612509950000000000000000                       0000002024100120241231GBR1GBR11011002020100200000001+00000001-FRE                                                                                                            00000000+1100000000EUREUR00000000000000000000000000             000
5BMGCAT450LPX      4050538626919950000000000000000                       0000002024100120241231GBR1GBR11011002021102200000001+00000001-FRE                                                                                                            00000000+1100000000EUREUR00000000000000000000000000             000
5BMGCAT465TCD      4050538628326950000000000000000                       0000002024100120241231GBR1GBR11011002020082800000001+00000001-FRE                                                                                                            00000000+1100000000EUREUR00000000000000000000000000             000
5BMGCAT460DLP      4050538631173950000000000000000                       0000002024100120241231GBR1GBR11011002021062500000020+00000020-FRE                                                                                                            00000000+1100000000EUREUR00000000000000000000000000             000
5BMGCAT460DCD      4050538631203950000000000000000                       0000002024100120241231GBR1GBR11011002021062500000021+00000021-FRE                                                                                                            00000000+1100000000EUREUR00000000000000000000000000             000
5DH0003            4050538634648950000000000000000                       0000002024100120241231GBR1GBR11011002021061200000001+00000001-FRE                                                                                                            00000000+1100000000EUREUR00000000000000000000000000             000
5BMGCAT462BOX      4050538644449950000000000000000                       0000002024100120241231GBR1GBR11011002021021200000001+00000001-FRE                                                                                                            00000000+1100000000EUREUR00000000000000000000000000             000
5BMGCAT495BOX      4050538659788950000000000000000                       0000002024100120241231GBR1GBR11011002021061100000002+00000002-FRE                                                                                                            00000000+1100000000EUREUR00000000000000000000000000             000
5SUICIDELP06       4050538664423950000000000000000                       0000002024100120241231GBR1GBR11011002022040800000010+00000010-FRE                                                                                                            00000000+1100000000EUREUR00000000000000000000000000             000
5BMGCAT476QCD      4050538664782950000000000000000                       0000002024100120241231GBR1GBR11011002021062500000003+00000003-FRE                                                                                                            00000000+1100000000EUREUR00000000000000000000000000             000
5538669912         4050538669916950000000000000000                       0000002024100120241231GBR1GBR11011002021041600000001+00000001-FRE                                                                                                            00000000+1100000000EUREUR00000000000000000000000000             000
5538670971         4050538670974950000000000000000                       0000002024100120241231GBR1GBR11011002023112400000001+00000001-FRE                                                                                                            00000000+1100000000EUREUR00000000000000000000000000             000
5BMGCAT518BOX      4050538677232950000000000000000                       0000002024100120241231GBR1GBR11011002021100100000002+00000002-FRE                                                                                                            00000000+1100000000EUREUR00000000000000000000000000             000
5538679881         4050538679885950000000000000000                       0000002024100120241231GBR1GBR11011002024092700000003+00000003-FRE                                                                                                            00000000+1100000000EUREUR00000000000000000000000000             000
5538679901         4050538679908950000000000000000                       0000002024100120241231GBR1GBR11011002024092700000003+00000003-FRE                                                                                                            00000000+1100000000EUREUR00000000000000000000000000             000
5538680100         4050538680102950000000000000000                       0000002024100120241231GBR1GBR11011002023060900000002+00000002-FRE                                                                                                            00000000+1100000000EUREUR00000000000000000000000000             000
5BMGCAT519DLP      4050538681895950000000000000000                       0000002024100120241231GBR1GBR11011002021082700000020+00000020-FRE                                                                                                            00000000+1100000000EUREUR00000000000000000000000000             000
5BMGCAT519CD       4050538681925950000000000000000                       0000002024100120241231GBR1GBR11011002021082700000020+00000020-FRE                                                                                                            00000000+1100000000EUREUR00000000000000000000000000             000
5BMGCAT522DCD      4050538685978950000000000000000                       0000002024100120241231GBR1GBR11011002021102900000001+00000001-FRE                                                                                                            00000000+1100000000EUREUR00000000000000000000000000             000
5BRASSIC122LP      4050538687569950000000000000000                       0000002024100120241231GBR1GBR11011002021092400000001+00000001-FRE                                                                                                            00000000+1100000000EUREUR00000000000000000000000000             000
5BMGCAT461DLPX     4050538690941950000000000000000                       0000002024100120241231GBR1GBR11011002022021800000020+00000020-FRE                                                                                                            00000000+1100000000EUREUR00000000000000000000000000             000
5538692630         4050538692631950000000000000000                       0000002024100120241231GBR1GBR11011002024092700000003+00000003-FRE                                                                                                            00000000+1100000000EUREUR00000000000000000000000000             000
5NOISEBOX106       4050538699326950000000000000000                       0000002024100120241231GBR1GBR11011002022072900000001+00000001-FRE                                                                                                            00000000+1100000000EUREUR00000000000000000000000000             000
5DH0006            4050538701104950000000000000000                       0000002024100120241231GBR1GBR11011002021112600000001+00000001-FRE                                                                                                            00000000+1100000000EUREUR00000000000000000000000000             000
5538703861         4050538703863950000000000000000                       0000002024100120241231GBR1GBR11011002022091600000001+00000001-FRE                                                                                                            00000000+1100000000EUREUR00000000000000000000000000             000
5NOISECDX068       4050538706062950000000000000000                       0000002024100120241231GBR1GBR11011002022052700000001+00000001-FRE                                                                                                            00000000+1100000000EUREUR00000000000000000000000000             000
5NVCD005           4050538706109950000000000000000                       0000002024100120241231GBR1GBR11011002022022500000001+00000001-FRE                                                                                                            00000000+1100000000EUREUR00000000000000000000000000             000
5538721392         4050538721393950000000000000000                       0000002024100120241231GBR1GBR11011002022010700000001+00000001-FRE                                                                                                            00000000+1100000000EUREUR00000000000000000000000000             000
5BMGCAT540L        4050538751406950000000000000000                       0000002024100120241231GBR1GBR11011002021121700000004+00000004-FRE                                                                                                            00000000+1100000000EUREUR00000000000000000000000000             000
5BMGCAT573DLP      4050538767247950000000000000000                       0000002024100120241231GBR1GBR11011002022110400000002+00000002-FRE                                                                                                            00000000+1100000000EUREUR00000000000000000000000000             000
5TJBOX10           4050538781786950000000000000000                       0000002024100120241231GBR1GBR11011002022082600000012+00000012-FRE                                                                                                            00000000+1100000000EUREUR00000000000000000000000000             000
5BMGCAT711CLP      4050538785463950000000000000000                       0000002024100120241231GBR1GBR11011002022070100000001+00000001-FRE                                                                                                            00000000+1100000000EUREUR00000000000000000000000000             000
5538788742         4050538788747950000000000000000                       0000002024100120241231GBR1GBR11011002022092300000001+00000001-FRE                                                                                                            00000000+1100000000EUREUR00000000000000000000000000             000
5NOISEBOX107       4050538789089950000000000000000                       0000002024100120241231GBR1GBR11011002022102800000002+00000002-FRE                                                                                                            00000000+1100000000EUREUR00000000000000000000000000             000
5INFECT134WLP      4050538789911950000000000000000                       0000002024100120241231GBR1GBR11011002022070100000002+00000002-FRE                                                                                                            00000000+1100000000EUREUR00000000000000000000000000             000
5DH0009            4050538791822950000000000000000                       0000002024100120241231GBR1GBR11011002022091600000010+00000010-FRE                                                                                                            00000000+1100000000EUREUR00000000000000000000000000             000
5NOISE2CLP010      4050538792959950000000000000000                       0000002024100120241231GBR1GBR11011002023011300000001+00000001-FRE                                                                                                            00000000+1100000000EUREUR00000000000000000000000000             000
5NOISE2CLP012      4050538792997950000000000000000                       0000002024100120241231GBR1GBR11011002023020300000001+00000001-FRE                                                                                                            00000000+1100000000EUREUR00000000000000000000000000             000
5BMGCAT581DLP      4050538799750950000000000000000                       0000002024100120241231GBR1GBR11011002023040700000002+00000002-FRE                                                                                                            00000000+1100000000EUREUR00000000000000000000000000             000
5BMGCAT582DLP      4050538800364950000000000000000                       0000002024100120241231GBR1GBR11011002023022400000002+00000002-FRE                                                                                                            00000000+1100000000EUREUR00000000000000000000000000             000
5BMGCAT583DLP      4050538800432950000000000000000                       0000002024100120241231GBR1GBR11011002022092300000002+00000002-FRE                                                                                                            00000000+1100000000EUREUR00000000000000000000000000             000
5BMGCAT715LP       4050538806250950000000000000000                       0000002024100120241231GBR1GBR11011002023030300000002+00000002-FRE                                                                                                            00000000+1100000000EUREUR00000000000000000000000000             000
5BMGCAT740DCD      4050538811667950000000000000000                       0000002024100120241231GBR1GBR11011002023032400000007+00000007-FRE                                                                                                            00000000+1100000000EUREUR00000000000000000000000000             000
5NOISECDBOX107     4050538811827950000000000000000                       0000002024100120241231GBR1GBR11011002022102800000001+00000001-FRE                                                                                                            00000000+1100000000EUREUR00000000000000000000000000             000
5BMGCAT748DLPX     4050538814149950000000000000000                       0000002024100120241231GBR1GBR11011002022091600000002+00000002-FRE                                                                                                            00000000+1100000000EUREUR00000000000000000000000000             000
5538816322         4050538816327950000000000000000                       0000002024100120241231GBR1GBR11011002023021700000001+00000001-FRE                                                                                                            00000000+1100000000EUREUR00000000000000000000000000             000
5538816460         4050538816464950000000000000000                       0000002024100120241231GBR1GBR11011002023092200000002+00000002-FRE                                                                                                            00000000+1100000000EUREUR00000000000000000000000000             000
5BMGCAT753LPX      4050538818994950000000000000000                       0000002024100120241231GBR1GBR11011002022101400000002+00000002-FRE                                                                                                            00000000+1100000000EUREUR00000000000000000000000000             000
5BMGCAT709DLP      4050538823011950000000000000000                       0000002024100120241231GBR1GBR11011002023042800000001+00000001-FRE                                                                                                            00000000+1100000000EUREUR00000000000000000000000000             000
5BMGCAT717DLP      4050538823066950000000000000000                       0000002024100120241231GBR1GBR11011002023042800000001+00000001-FRE                                                                                                            00000000+1100000000EUREUR00000000000000000000000000             000
5538841512         4050538841510950000000000000000                       0000002024100120241231GBR1GBR11011002022102800000001+00000001-FRE                                                                                                            00000000+1100000000EUREUR00000000000000000000000000             000
5TJDCD606          4050538852301950000000000000000                       0000002024100120241231GBR1GBR11011002023012000000001+00000001-FRE                                                                                                            00000000+1100000000EUREUR00000000000000000000000000             000
5BMGCAT792DLP      4050538868548950000000000000000                       0000002024100120241231GBR1GBR11011002023061600000002+00000002-FRE                                                                                                            00000000+1100000000EUREUR00000000000000000000000000             000
5BMGCAT792DCD      4050538868579950000000000000000                       0000002024100120241231GBR1GBR11011002023061600000001+00000001-FRE                                                                                                            00000000+1100000000EUREUR00000000000000000000000000             000
5BMGCAT791DBOX     4050538869842950000000000000000                       0000002024100120241231GBR1GBR11011002024040500000001+00000001-FRE                                                                                                            00000000+1100000000EUREUR00000000000000000000000000             000
5DH0018            4050538870046950000000000000000                       0000002024100120241231GBR1GBR11011002023112400000020+00000020-FRE                                                                                                            00000000+1100000000EUREUR00000000000000000000000000             000
5BMGCAT801QLP      4050538871623950000000000000000                       0000002024100120241231GBR1GBR11011002023060200000001+00000001-FRE                                                                                                            00000000+1100000000EUREUR00000000000000000000000000             000
5538872001         4050538872002950000000000000000                       0000002024100120241231GBR1GBR11011002024071900000003+00000003-FRE                                                                                                            00000000+1100000000EUREUR00000000000000000000000000             000
5NOISEBOX108       4050538872460950000000000000000                       0000002024100120241231GBR1GBR11011002023051900000001+00000001-FRE                                                                                                            00000000+1100000000EUREUR00000000000000000000000000             000
5SUICIDELP03       4050538877496950000000000000000                       0000002024100120241231GBR1GBR11011002023052600000010+00000010-FRE                                                                                                            00000000+1100000000EUREUR00000000000000000000000000             000
5538881281         4050538881288950000000000000000                       0000002024100120241231GBR1GBR11011002023102700000002+00000002-FRE                                                                                                            00000000+1100000000EUREUR00000000000000000000000000             000
5538886112         4050538886115950000000000000000                       0000002024100120241231GBR1GBR11011002023120100000001+00000001-FRE                                                                                                            00000000+1100000000EUREUR00000000000000000000000000             000
5538889071         4050538889079950000000000000000                       0000002024100120241231GBR1GBR11011002023071400000006+00000006-FRE                                                                                                            00000000+1100000000EUREUR00000000000000000000000000             000
5BMGCAT747DLP      4050538889482950000000000000000                       0000002024100120241231GBR1GBR11011002023062300000002+00000002-FRE                                                                                                            00000000+1100000000EUREUR00000000000000000000000000             000
5538895371         4050538895377950000000000000000                       0000002024100120241231GBR1GBR11011002023061600000002+00000002-FRE                                                                                                            00000000+1100000000EUREUR00000000000000000000000000             000
5BMGCAT804DCD      4050538897715950000000000000000                       0000002024100120241231GBR1GBR11011002023111700000007+00000007-FRE                                                                                                            00000000+1100000000EUREUR00000000000000000000000000             000
5DH0025            4050538899641950000000000000000                       0000002024100120241231GBR1GBR11011002024042000000020+00000020-FRE                                                                                                            00000000+1100000000EUREUR00000000000000000000000000             000
5BMGCAT814CD       4050538900866950000000000000000                       0000002024100120241231GBR1GBR11011002023091500000001+00000001-FRE                                                                                                            00000000+1100000000EUREUR00000000000000000000000000             000
5BMGCAT797DLPX     4050538901535950000000000000000                       0000002024100120241231GBR1GBR11011002023082500000002+00000002-FRE                                                                                                            00000000+1100000000EUREUR00000000000000000000000000             000
5BRASSIC115B       4050538903638950000000000000000                       0000002024100120241231GBR1GBR11011002024040500000001+00000001-FRE                                                                                                            00000000+1100000000EUREUR00000000000000000000000000             000
5BMGCAT815CD       4050538905694950000000000000000                       0000002024100120241231GBR1GBR11011002023091500000001+00000001-FRE                                                                                                            00000000+1100000000EUREUR00000000000000000000000000             000
5538907281         4050538907285950000000000000000                       0000002024100120241231GBR1GBR11011002023111700000010+00000010-FRE                                                                                                            00000000+1100000000EUREUR00000000000000000000000000             000
5538907672         4050538907674950000000000000000                       0000002024100120241231GBR1GBR11011002023060200000001+00000001-FRE                                                                                                            00000000+1100000000EUREUR00000000000000000000000000             000
5BRASSIC11HSLP     4050538919004950000000000000000                       0000002024100120241231GBR1GBR11011002023101400000010+00000010-FRE                                                                                                            00000000+1100000000EUREUR00000000000000000000000000             000
5538920412         4050538920413950000000000000000                       0000002024100120241231GBR1GBR11011002023090100000001+00000001-FRE                                                                                                            00000000+1100000000EUREUR00000000000000000000000000             000
5BMGCAT843DCD      4050538933925950000000000000000                       0000002024100120241231GBR1GBR11011002023102000000002+00000002-FRE                                                                                                            00000000+1100000000EUREUR00000000000000000000000000             000
5BMGCAT834CD       4050538934137950000000000000000                       0000002024100120241231GBR1GBR11011002023110300000001+00000001-FRE                                                                                                            00000000+1100000000EUREUR00000000000000000000000000             000
5BMGCAT835CD       4050538934151950000000000000000                       0000002024100120241231GBR1GBR11011002023090100000001+00000001-FRE                                                                                                            00000000+1100000000EUREUR00000000000000000000000000             000
5BMGCAT836CD       4050538935165950000000000000000                       0000002024100120241231GBR1GBR11011002023090100000001+00000001-FRE                                                                                                            00000000+1100000000EUREUR00000000000000000000000000             000
5BMGCAT837CD       4050538935172950000000000000000                       0000002024100120241231GBR1GBR11011002023090100000001+00000001-FRE                                                                                                            00000000+1100000000EUREUR00000000000000000000000000             000
5BMGCAT840CD       4050538935271950000000000000000                       0000002024100120241231GBR1GBR11011002023110300000001+00000001-FRE                                                                                                            00000000+1100000000EUREUR00000000000000000000000000             000
5HOT 420           4050538936841950000000000000000                       0000002024100120241231GBR1GBR11011002024020900000040+00000040-FRE                                                                                                            00000000+1100000000EUREUR00000000000000000000000000             000
5BMGCAT831DLP      4050538938661950000000000000000                       0000002024100120241231GBR1GBR11011002024102500000002+00000002-FRE                                                                                                            00000000+1100000000EUREUR00000000000000000000000000             000
5BMGCAT831CDX      4050538938708950000000000000000                       0000002024100120241231GBR1GBR11011002024102500000001+00000001-FRE                                                                                                            00000000+1100000000EUREUR00000000000000000000000000             000
5BMGCAT831BOX      4050538938715950000000000000000                       0000002024100120241231GBR1GBR11011002024102500000020+00000020-FRE                                                                                                            00000000+1100000000EUREUR00000000000000000000000000             000
5538941301         4050538941302950000000000000000                       0000002024100120241231GBR1GBR11011002024021600000005+00000005-FRE                                                                                                            00000000+1100000000EUREUR00000000000000000000000000             000
5NOISELP084X       4050538944266950000000000000000                       0000002024100120241231GBR1GBR11011002024022300000002+00000002-FRE                                                                                                            00000000+1100000000EUREUR00000000000000000000000000             000
5538944442         4050538944440950000000000000000                       0000002024100120241231GBR1GBR11011002024021600000005+00000005-FRE                                                                                                            00000000+1100000000EUREUR00000000000000000000000000             000
5NOISE118DLP7X     4050538945119950000000000000000                       0000002024100120241231GBR1GBR11011002023111000000002+00000002-FRE                                                                                                            00000000+1100000000EUREUR00000000000000000000000000             000
5TAG80018CD        4050538945317950000000000000000                       0000002024100120241231GBR1GBR11011002023092900000001+00000001-FRE                                                                                                            00000000+1100000000EUREUR00000000000000000000000000             000
5DH0022CD          4050538946536950000000000000000                       0000002024100120241231GBR1GBR11011002023102000000001+00000001-FRE                                                                                                            00000000+1100000000EUREUR00000000000000000000000000             000
5538955012         4050538955019950000000000000000                       0000002024100120241231GBR1GBR11011002023102700000001+00000001-FRE                                                                                                            00000000+1100000000EUREUR00000000000000000000000000             000
5BMGCAT725CD       4050538961720950000000000000000                       0000002024100120241231GBR1GBR11011002024022300000001+00000001-FRE                                                                                                            00000000+1100000000EUREUR00000000000000000000000000             000
5NOISE118CDD       4050538962208950000000000000000                       0000002024100120241231GBR1GBR11011002024042600000001+00000001-FRE                                                                                                            00000000+1100000000EUREUR00000000000000000000000000             000
5DH0035CD          4050538967548950000000000000000                       0000002024100120241231GBR1GBR11011002024042600000001+00000001-FRE                                                                                                            00000000+1100000000EUREUR00000000000000000000000000             000
5DH0050LP          4050538968910950000000000000000                       0000002024100120241231GBR1GBR11011002024111500000010+00000010-FRE                                                                                                            00000000+1100000000EUREUR00000000000000000000000000             000
5DH0050DLXLP       4050538968927950000000000000000                       0000002024100120241231GBR1GBR11011002024111500000001+00000001-FRE                                                                                                            00000000+1100000000EUREUR00000000000000000000000000             000
5BMGCAT860BOX      4050538971200950000000000000000                       0000002024100120241231GBR1GBR11011002023120800000002+00000002-FRE                                                                                                            00000000+1100000000EUREUR00000000000000000000000000             000
5WCV110            4050538977196950000000000000000                       0000002024100120241231GBR1GBR11011002025012400000001+00000001-FRE                                                                                                            00000000+1100000000EUREUR00000000000000000000000000             000
5TAG80023LP        4050538977240950000000000000000                       0000002024100120241231GBR1GBR11011002024051000000001+00000001-FRE                                                                                                            00000000+1100000000EUREUR00000000000000000000000000             000
5BMGCAT875CD       4050538977639950000000000000000                       0000002024100120241231GBR1GBR11011002024080900000040+00000040-FRE                                                                                                            00000000+1100000000EUREUR00000000000000000000000000             000
5BMGCAT875LP       4050538977653950000000000000000                       0000002024100120241231GBR1GBR11011002024080900000056+00000056-FRE                                                                                                            00000000+1100000000EUREUR00000000000000000000000000             000
5BMGCAT920LP       4050538980783950000000000000000                       0000002024100120241231GBR1GBR11011002024101800000020+00000020-FRE                                                                                                            00000000+1100000000EUREUR00000000000000000000000000             000
5BMGCAT861LP       4050538980790950000000000000000                       0000002024100120241231GBR1GBR11011002024101800000020+00000020-FRE                                                                                                            00000000+1100000000EUREUR00000000000000000000000000             000
5BMGCAT856DLPX     4050538982282950000000000000000                       0000002024100120241231GBR1GBR11011002024040500000001+00000001-FRE                                                                                                            00000000+1100000000EUREUR00000000000000000000000000             000
5BMGCAT856CD       4050538982381950000000000000000                       0000002024100120241231GBR1GBR11011002024040500000000+00000000-FRE                                                                                                            00000000+1100000000EUREUR00000000000000000000000000             000
5BMGCAT857DLPX     4050538982572950000000000000000                       0000002024100120241231GBR1GBR11011002024040500000001+00000001-FRE                                                                                                            00000000+1100000000EUREUR00000000000000000000000000             000
5BMGCAT858DLPX     4050538982695950000000000000000                       0000002024100120241231GBR1GBR11011002024040500000001+00000001-FRE                                                                                                            00000000+1100000000EUREUR00000000000000000000000000             000
5538995881         4050538995886950000000000000000                       0000002024100120241231GBR1GBR11011002025041200000001+00000001-FRE                                                                                                            00000000+1100000000EUREUR00000000000000000000000000             000
5538997611         4050538997613950000000000000000                       0000002024100120241231GBR1GBR11011002024071200000003+00000003-FRE                                                                                                            00000000+1100000000EUREUR00000000000000000000000000             000
5964008572         4099964008579950000000000000000                       0000002024100120241231GBR1GBR11011002024071200000042+00000042-FRE                                                                                                            00000000+1100000000EUREUR00000000000000000000000000             000
5964008581         4099964008586950000000000000000                       0000002024100120241231GBR1GBR11011002024071200000003+00000003-FRE                                                                                                            00000000+1100000000EUREUR00000000000000000000000000             000
5964008591         4099964008593950000000000000000                       0000002024100120241231GBR1GBR11011002024071200000013+00000013-FRE                                                                                                            00000000+1100000000EUREUR00000000000000000000000000             000
5TJDLP617          4099964009347950000000000000000                       0000002024100120241231GBR1GBR11011002024051000000002+00000002-FRE                                                                                                            00000000+1100000000EUREUR00000000000000000000000000             000
5DH0044            4099964011470950000000000000000                       0000002024100120241231GBR1GBR11011002024092700000005+00000005-FRE                                                                                                            00000000+1100000000EUREUR00000000000000000000000000             000
5DH0047            4099964011524950000000000000000                       0000002024100120241231GBR1GBR11011002024102500000001+00000001-FRE                                                                                                            00000000+1100000000EUREUR00000000000000000000000000             000
5964026842         4099964026849950000000000000000                       0000002024100120241231GBR1GBR11011002024072600000019+00000019-FRE                                                                                                            00000000+1100000000EUREUR00000000000000000000000000             000
5964026861         4099964026863950000000000000000                       0000002024100120241231GBR1GBR11011002024072600000019+00000019-FRE                                                                                                            00000000+1100000000EUREUR00000000000000000000000000             000
5BMGCAT886DBOX     4099964027068950000000000000000                       0000002024100120241231GBR1GBR11011002024090600000045+00000045-FRE                                                                                                            00000000+1100000000EUREUR00000000000000000000000000             000
5BMGCAT887DLP      4099964027631950000000000000000                       0000002024100120241231GBR1GBR11011002024092000000085+00000085-FRE                                                                                                            00000000+1100000000EUREUR00000000000000000000000000             000
5964028781         4099964028782950000000000000000                       0000002024100120241231GBR1GBR11011002024053100000032+00000032-FRE                                                                                                            00000000+1100000000EUREUR00000000000000000000000000             000
5964034271         4099964034271950000000000000000                       0000002024100120241231GBR1GBR11011002024082300000004+00000004-FRE                                                                                                            00000000+1100000000EUREUR00000000000000000000000000             000
5964034711         4099964034714950000000000000000                       0000002024100120241231GBR1GBR11011002024080200000020+00000020-FRE                                                                                                            00000000+1100000000EUREUR00000000000000000000000000             000
5964037761         4099964037760950000000000000000                       0000002024100120241231GBR1GBR11011002024071200000013+00000013-FRE                                                                                                            00000000+1100000000EUREUR00000000000000000000000000             000
5964038692         4099964038699950000000000000000                       0000002024100120241231GBR1GBR11011002024053100000000+00000000-FRE                                                                                                            00000000+1100000000EUREUR00000000000000000000000000             000
5964038711         4099964038712950000000000000000                       0000002024100120241231GBR1GBR11011002024053100000000+00000000-FRE                                                                                                            00000000+1100000000EUREUR00000000000000000000000000             000
5ECCEHOMOCDX       4099964039443950000000000000000                       0000002024100120241231GBR1GBR11011002024102500000041+00000041-FRE                                                                                                            00000000+1100000000EUREUR00000000000000000000000000             000
5ECCEHOMOCLP       4099964039450950000000000000000                       0000002024100120241231GBR1GBR11011002024102500000043+00000043-FRE                                                                                                            00000000+1100000000EUREUR00000000000000000000000000             000
5964045040         4099964045048950000000000000000                       0000002024100120241231GBR1GBR11011002024062800000004+00000004-FRE                                                                                                            00000000+1100000000EUREUR00000000000000000000000000             000
5964045330         4099964045338950000000000000000                       0000002024100120241231GBR1GBR11011002024070500000040+00000040-FRE                                                                                                            00000000+1100000000EUREUR00000000000000000000000000             000
5964045511         4099964045512950000000000000000                       0000002024100120241231GBR1GBR11011002024071900000045+00000045-FRE                                                                                                            00000000+1100000000EUREUR00000000000000000000000000             000
5964046072         4099964046076950000000000000000                       0000002024100120241231GBR1GBR11011002024071900000050+00000050-FRE                                                                                                            00000000+1100000000EUREUR00000000000000000000000000             000
5964046091         4099964046090950000000000000000                       0000002024100120241231GBR1GBR11011002024071900000066+00000066-FRE                                                                                                            00000000+1100000000EUREUR00000000000000000000000000             000
5Rise 541-1        4099964046533950000000000000000                       0000002024100120241231GBR1GBR11011002024082300000017+00000017-FRE                                                                                                            00000000+1100000000EUREUR00000000000000000000000000             000
5Rise 541-2        4099964046540950000000000000000                       0000002024100120241231GBR1GBR11011002024082300000047+00000047-FRE                                                                                                            00000000+1100000000EUREUR00000000000000000000000000             000
5964047691         4099964047691950000000000000000                       0000002024100120241231GBR1GBR11011002024112200000023+00000023-FRE                                                                                                            00000000+1100000000EUREUR00000000000000000000000000             000
5964047722         4099964047721950000000000000000                       0000002024100120241231GBR1GBR11011002024112200000002+00000002-FRE                                                                                                            00000000+1100000000EUREUR00000000000000000000000000             000
5964049712         4099964049718950000000000000000                       0000002024100120241231GBR1GBR11011002024080900000035+00000035-FRE                                                                                                            00000000+1100000000EUREUR00000000000000000000000000             000
5964049751         4099964049756950000000000000000                       0000002024100120241231GBR1GBR11011002024080900000054+00000054-FRE                                                                                                            00000000+1100000000EUREUR00000000000000000000000000             000
5BMGCAT887DCD      4099964050660950000000000000000                       0000002024100120241231GBR1GBR11011002024092000000038+00000038-FRE                                                                                                            00000000+1100000000EUREUR00000000000000000000000000             000
5964051322         4099964051322950000000000000000                       0000002024100120241231GBR1GBR11011002024102500000001+00000001-FRE                                                                                                            00000000+1100000000EUREUR00000000000000000000000000             000
5964051351         4099964051353950000000000000000                       0000002024100120241231GBR1GBR11011002024102500000002+00000002-FRE                                                                                                            00000000+1100000000EUREUR00000000000000000000000000             000
5964051361         4099964051360950000000000000000                       0000002024100120241231GBR1GBR11011002024102500000001+00000001-FRE                                                                                                            00000000+1100000000EUREUR00000000000000000000000000             000
5964051461         4099964051469950000000000000000                       0000002024100120241231GBR1GBR11011002024080900000003+00000003-FRE                                                                                                            00000000+1100000000EUREUR00000000000000000000000000             000
5964051690         4099964051698950000000000000000                       0000002024100120241231GBR1GBR11011002024082300000051+00000051-FRE                                                                                                            00000000+1100000000EUREUR00000000000000000000000000             000
5BMGCAT888DCD      4099964053838950000000000000000                       0000002024100120241231GBR1GBR11011002024072600000007+00000007-FRE                                                                                                            00000000+1100000000EUREUR00000000000000000000000000             000
5BMGCAT889CD       4099964053852950000000000000000                       0000002024100120241231GBR1GBR11011002024072600000007+00000007-FRE                                                                                                            00000000+1100000000EUREUR00000000000000000000000000             000
